:100000000C944B010C9492010C9492010C9492016B
:100010000C9492010C9492010C9492010C94920114
:100020000C9492010C9492010C9492010C943B1646
:100030000C94F7150C9465190C9492010C94920190
:100040000C9492010C9492010C9492010C9441191D
:100050000C9492010C9492010C9492010C949201D4
:100060000C9492010C9492010C9492010C949201C4
:100070000C94920107634236B79BD8A71A39685689
:1000800018AEBAAB558C1D3CB7CC5763BD6DEDFDBA
:10009000753EF6177231BF000000803F05A84CCDB9
:1000A000B2D44EB93836A9020C50B9918688083CB2
:1000B000A6AAAA2ABE000000803F0001010101019A
:1000C0000101010102020202020202020203030311
:1000D00003030303030404040404040405050505E1
:1000E00005060606060607070707070808080809A1
:1000F0000909090A0A0A0B0B0B0C0C0C0D0D0D0E4D
:100100000E0E0F0F0F1010111111121213131414E1
:10011000151516161717181819191A1A1B1B1C1D56
:100120001D1E1E1F202021222223242425262627AF
:100130002829292A2B2C2D2D2E2F303132323334E1
:1001400035363738393A3B3C3D3E3F4041424344E7
:1001500045464748494A4C4D4E4F505153545556C9
:1001600058595A5B5D5E5F616264656668696B6C75
:100170006D6F7072737577787A7B7D7E80828385F0
:1001800087888A8C8E8F91939596989A9C9EA0A230
:10019000A3A5A7A9ABADAFB1B3B5B7BABCBEC0C23A
:1001A000C4C6C9CBCDCFD1D4D6D8DBDDDFE2E4E7FE
:1001B000E9EBEEF0F3F5F8FAFDFFFFAA7F554013E7
:1001C000501150085D0A5D095D0B5D1D001B007834
:1001D0003C1E1E140A0505010906A101050719E0C8
:1001E00029E715002501950875018102950175081B
:1001F00081010507190029FF150026FF00950675E6
:1002000008810005081901290595057501910295D8
:100210000175039101C009022200010100A0FA0941
:100220000400000103010100092111010001224025
:1002300000070581030800011201100100000008F9
:1002400027072A0001000102030104033000000017
:10025000280322004C006F007400750073005000EA
:1002600072006F00200032006B0020005200650019
:1002700076002000310022000000160322004C000E
:100280006F00740075007300500072006F00220050
:1002900000000403090411241FBECFEFD4E0DEBF29
:1002A000CDBF04B603FE27C08091CC019091CD0153
:1002B000A091CE01B091CF018730904BA740B04BB9
:1002C000D1F41092CC011092CD011092CE01109277
:1002D000CF0114BE84B7877F84BF0FB6F894A8956A
:1002E00080916000886180936000109260000FBE72
:1002F000E0E0F8E3099521E0A0E3B1E001C01D9240
:10030000AC3CB207E1F711E0A0E0B1E0E2E4FBE3CE
:1003100002C005900D92A033B107D9F70E94F816DC
:100320000C945D1D0C940000982F9093E9008917A0
:1003300079F05091EC002091ED004091F00021FD0A
:100340000AC09F5F953089F78093E90081E00895A6
:10035000562F40E022E03091EB003E7F3093EB00DF
:100360003091ED003D7F3093ED003091EB00316036
:100370003093EB005093EC002093ED004093F0009D
:100380002091EE0027FDDDCF80E008952091E4006C
:100390003091E50095E6A9012091EC00822F817053
:1003A00020FF06C08091E80080FF06C080E008952D
:1003B0002091E80022FD1AC08091C201882389F0B3
:1003C000853089F08091EB0085FD0FC02091E4001D
:1003D0003091E50042175307F9F29150E1F684E0BD
:1003E000089582E0089583E0089581E00895EF92F2
:1003F000FF920F931F93CF937C010E94C601C82FD9
:10040000811119C008E010E08091E80085FD0BC063
:100410008091E8008E778093E8000E94C6018823CF
:1004200099F3C82F08C0F70181917F018093F100F3
:100430000150110949F78C2FCF911F910F91FF9017
:10044000EF9008958091C40187FF13C08091E80068
:1004500082FF06C08091E8008B778093E80004C09B
:100460008091C2018111F2CF08958091C201882349
:10047000D9F38091E80080FFF8CF8091E8008E7773
:10048000ECCFFC018091CA019091CB0186179707B0
:10049000A0F06115710529F49091E8009E77909382
:1004A000E80090E06115710551F4911108C0809148
:1004B000E80082FF32C080E00895BC01F2CF809155
:1004C000C2018823B1F18530B1F18091E80083FD4C
:1004D0002EC08091E80082FDEACF8091E80080FF85
:1004E000E1CF2091F20030E06115710519F028305C
:1004F000310558F091E02830310509F090E0209165
:10050000E8002E772093E800CDCF81918093F10011
:10051000615071092F5F3F4FE7CF8091C20188235F
:1005200041F0853041F08091E80083FFC0CF81E049
:10053000089582E0089583E0089508950895089548
:1005400008958091B70108959C014FB7F894809168
:10055000970190919801A0919901B0919A014FBF94
:10056000821B930B08952FB7F89480919701909177
:100570009801A0919901B0919A012FBF08959C0113
:10058000FC0132969FEF80E04191461751F09F3F6A
:1005900019F4411101C0982F8F5F8630A9F79F3F52
:1005A00009F40895290F311D97FD3A95F9016283E9
:1005B0000895809192018111109292010895809185
:1005C000910190919001892B90918F01892B8093BB
:1005D000300190919201992391F0892B8093300101
:1005E00020E082E391E0FC013191CF0131112F5FD6
:1005F000F1E088339F07B9F721110E94D902E091F9
:10060000A001F091A101309731F00280F381E02D3B
:1006100080E391E009940895990F890FA82FA7709E
:1006200086958695869590E065E070E00E948C192D
:10063000FC01EB57FE4F50E040E080E0219130E0BC
:100640000A2E02C0369527950A94E2F721703327C7
:10065000042E01C0220F0A94EAF7822B4F5F5F4FEE
:100660004530510559F70895CF93DF93262F990F01
:10067000890F982F9770E1E001C0EE0F9A95EAF785
:1006800086958695869590E065E070E00E948C19CD
:10069000DC01AB57BE4F50E040E0622F70E08D911F
:1006A000ED0121979B01042E02C0369527950A94EF
:1006B000E2F72170219528272E23282728834F5FD2
:1006C0005F4F4530510559F7DF91CF910895609301
:1006D0008A0170938B0180938C0190938D0110920D
:1006E000900110928F010C94DF020F931F9341E051
:1006F00050E060E070E004C0440F551F661F771F94
:100700008A95D2F7CB01BA01609570958095909546
:1007100000918A0110918B0120918C0130918D0103
:1007200060237123822393231F910F910C946703FD
:1007300090918E018095892380938E01282F2770B8
:1007400071F4282F082E000C330B9217130639F082
:100750008595859585950E94750310928E01089563
:100760000F931F9341E050E060E070E004C0440F3D
:10077000551F661F771F8A95D2F780918A01909145
:100780008B01A0918C01B0918D018A019B01082BF6
:10079000192B2A2B3B2BC901B8011F910F910C94E7
:1007A00067036093930170939401809395019093F4
:1007B00096011092900110928F010C94DF028091AB
:1007C000840190915301981301C008958F5F877041
:1007D000FACF882341F080959091910189238093ED
:1007E00091010C94DF020895882339F090919101D2
:1007F000982B909391010C94DF020895882309F4BB
:1008000058C09CEF980F913A70F4E2E3F1E09191B7
:10081000891303C0DF0111971C9241E0E833F4070C
:10082000B1F70C94DF0290E2980F983088F487704B
:1008300021E030E0A90102C0440F551F8A95E2F77C
:10084000CA01809590919101892380939101E9CF0C
:100850009BE5980F9330B0F48091490190914A0143
:10086000892B39F110924A0110924901E091A001BF
:10087000F091A1013097E9F00680F781E02D90E03A
:1008800080E00994885A8731A0F480914B019091BF
:100890004C01892B71F010924C0110924B01E091A8
:1008A000A001F091A101309721F00084F185E02DA5
:1008B000E6CF0895CF93C82F8823A1F18CEF8C0F3A
:1008C000813AF8F4E2E3F1E0DF018D91C81761F0BD
:1008D00081E0A833B807C9F76C2F80E391E00E944C
:1008E000BF02CF910C94DF028191C81303C0DF01D6
:1008F00011971C9281E0E833F807B1F70E94DF02FC
:10090000EBCF80E28C0F883068F4C77021E030E0D4
:1009100001C0220FCA95EAF780919101822B809342
:100920009101DFCFCF910895E091A001F091A10155
:10093000309721F00190F081E02D099480E0089536
:10094000FA01811101C0FB0109948091AF01982F38
:100950009E7F29F4817082608093AF010895863272
:10096000E8F381708462F8CFAF92BF92CF92DF92AA
:10097000EF92FF920F931F93CF93DF938901E42FA0
:10098000F0E0E654FF4F611115C09491392FE92F23
:10099000D8011196EC9311979C9312963C93DF919A
:1009A000CF911F910F91FF90EF90DF90CF90BF906C
:1009B000AF900895C82FD0E0E62EF12CE4914E2F91
:1009C000AE2EB12CCE0166E070E00E948C19CC24D2
:1009D000CA94D12CB6010E949D19DB01CC0FDD1FFA
:1009E000CB0165E570E00E948C19C81BD90B8C2FD8
:1009F000880FC80FC6018E199F09B5010E948C1976
:100A0000392FD0E0CE01B7010E948C19692F70E018
:100A1000C601861B970BB5010E948C19292FC601B0
:100A20008C1B9D0BB7010E948C19692F70E0C601C9
:100A3000861B970BB5010E948C19892FA230B10536
:100A400089F040F4109709F4A3CF119779F0932F10
:100A5000322F9ECFA430B10561F078F0169709F4DB
:100A600097CFF5CF9E2FE32F382F92CF9E2FE22FD7
:100A70008FCF932F3E2FE82F8BCFE32F342F922F42
:100A800087CF90919D0192FF06C0282F28712830B2
:100A9000F9F4877F846093FF06C0282F28712831DE
:100AA000F1F4877E846120919E0120FF06C0382FDB
:100AB00038713830D9F4877F816021FF06C0282F34
:100AC00028712831D1F4877E816194FD877E089555
:100AD000282F24712430F9F68B7F8860DCCF282FF3
:100AE0002471243101F78B7E8861DDCF382F31717D
:100AF000313019F78E7F8860E0CF282F21712131A6
:100B000021F78E7E8861E1CFCF93DF93272F280FC7
:100B10003327331FF901EE0FFF1FE60FF11DEE0F14
:100B2000FF1FE154FE4FC591D491CE01C238D105CB
:100B300091F1C0F5C133D10509F494C028F5C9324B
:100B4000D10509F488C0CA32D10509F492C0C11593
:100B500033E5D30708F0ADC0C11522E5D20708F090
:100B600013C1C11530E2D30708F090C0C11521E0D0
:100B7000D20730F5C53AD10508F082C0C430D1059E
:100B8000F8F42197E9F040C0C533D10509F45CC001
:100B9000C933D105E1F620919D01237089F080EEE3
:100BA00090E00EC0C33ED10591F168F4C03ED1057E
:100BB000F9F0C23ED10559F620919D0122FD20C0D9
:100BC000DF91CF910895C63ED10561F1C73ED105B1
:100BD00081F1C43ED10509F0BACF20919E0121FFD9
:100BE000EFCF80919D0184FD0FC087EE90E0E8CFAC
:100BF00020919D0120FDF9C030919E0130FFE0CF92
:100C000083EE90E024FFDCCF90E080E0D9CF20910C
:100C10009D0122FDEDC030919E0130FDC0CF24FF2B
:100C2000CFCFF2CF20919D0123FFCACF24FDECCF7F
:100C3000DCCF20919D0123FDDEC030919E0131FF6C
:100C4000EECF84EE90E0BCCF20919D0125FFB8CF80
:100C500089E290E0B5CF20919D0125FFB1CF85E3DA
:100C600090E0AECF20919D0126FFAACF8AE290E0CE
:100C7000A7CF20919D0126FFA3CF81E390E0A0CFD5
:100C8000C05ED109289708F49BCFBECFC11531E5CE
:100C9000D30708F074C0C11580E5D80708F051C02B
:100CA000C11520E4D20708F4AFCFCE019F70906A3F
:100CB00087CFC11536E5D30700F5C11585E5D807FF
:100CC00008F07CC0C11524E5D20708F072C09E016F
:100CD0002370332781E090E002C0880F991F2A9586
:100CE000E2F7C695C695D0E075E0CC0FDD1F7A958A
:100CF000E1F78C2B9D2B9A6863CFC1153AE5D3079A
:100D000078F4C11589E5D80708F062C0C11528E557
:100D1000D20708F479CF9C2F8827806F906A50CF34
:100D2000CE0190568115904208F06ECF8D2F8F71B5
:100D30000E94410590E0982F882788279F718C2B6F
:100D400045C09E01A4E036952795AA95E1F723704A
:100D50008C2F86958695837090E0B5E0880F991F5B
:100D6000BA95E1F7922BC37021E030E002C0220F68
:100D7000331FCA95E2F7822B932B9C6821CF9C2FBF
:100D80008827816F906A1CCF9E012370332781E0F2
:100D900090E002C0880F991F2A95E2F7C695C69584
:100DA000D0E0E5E0CC0FDD1FEA95E1F78C2B9D2B21
:100DB000E4CF9C2F8827846F906A02CF8C2F0E94EB
:100DC000410590E0982F882788279F719062F8CE80
:100DD0008C2F8F700E94410534E0D695C7953A95C7
:100DE000E1F7CF709C2F9069EBCE89E390E0E8CEDD
:100DF00082EE90E0E5CE86EE90E0E2CEBF92CF921A
:100E0000DF92EF92FF920F931F93CF93DF938C01AA
:100E1000C0908A01D0908B01E0908C01F0908D0100
:100E20008091930190919401A0919501B0919601C8
:100E3000C82AD92AEA2AFB2ACFE1D0E0BC2ED70162
:100E4000C6010C2E04C0B695A795979587950A9470
:100E5000D2F780FD0EC0219788F7B12C8B2DDF9142
:100E6000CF911F910F91FF90EF90DF90CF90BF90A7
:100E70000895B8018C2F0E948405019761F3EECF8D
:100E8000CF93DF93EC010E94FE06BE01DF91CF916C
:100E90000C9484050E944007292F2F7092959F7013
:100EA00092509E3078F4E92FF0E0E15AF24E0C9423
:100EB000B119803F19F020F4883E20F481E00895B4
:100EC000843FE1F380E00895883EC0F3813FD1F78D
:100ED000F5CF822F8695869586950895CF93DF93DB
:100EE000EC018091C201843039F581E08093E90002
:100EF0008FEF9091E800815095FD06C095ED9A9591
:100F0000F1F700008111F5CF8091E80085FF14C052
:100F100050E040E068E070E0CE010E94F70180916F
:100F2000E8008E778093E80088E0FE01A8EBB1E04E
:100F300001900D928A95E1F7DF91CF91089581E0BC
:100F40008093E00080E28093D8001092C9008FE186
:100F50009EE40197F1F700C0000087E090EBDC0110
:100F60008093CC019093CD01A093CE01B093CF019B
:100F700088E19CE00FB6F894A895809360000FBEBE
:100F800090936000FFCF0F931F93CF93DF93C62FF3
:100F9000D42F022FFC0182818823A1F060934701A6
:100FA0000E94B3029093420180934101C77081E097
:100FB00001C0880FCA95EAF7DF91CF911F910F9179
:100FC0000C94F40310914701161338C0809141012D
:100FD000909142010E94A402883C910578F5C0E2FC
:100FE000CD0F1D17B9F080E2810F883040F41770E3
:100FF00081E001C0880F1A95EAF70E94E903C83022
:1010000048F481E09D2F977001C0880F9A95EAF708
:101010000E94F403802F0E945A04802F0E94FE0336
:10102000C83098F4D77081E001C0880FDA95EAF7EC
:10103000DF91CF911F910F910C94E903C77081E06C
:1010400001C0880FCA95EAF7F3CFDF91CF911F91C6
:101050000F9108958091AF0180FD0CC010923C016A
:1010600010923B0110923D0110923F0110923E01FF
:1010700010924001259A35B13F7D25B120624FB7CE
:10108000F8948BE391E0FC015191CF0168E025B920
:10109000000000C057FF35B9550F000000C000C068
:1010A00000C035B900C06A9591F7F1E081349F071F
:1010B00051F74FBF8FE594E00197F1F700C00000B2
:1010C00008959091AF0190FF0EC080933C01609312
:1010D0003B0140933D0180933F0160933E0140936B
:1010E00040010C942A080895CF93DF9300D00F920B
:1010F000CDB7DEB79091AF0190FF0AC09E012F5F80
:101100003F4F0E94B4044B8169818A810E9461082B
:101110000F900F900F90DF91CF910895CF93DF93B1
:10112000EC01EFEAF1E0438162818C810E94740856
:101130008C818F5F8C83DF91CF910895CF93DF9364
:10114000EC016C8170E090E080E00E94561B20E092
:1011500030E04FE753E40E94791A2BED3FE049E479
:1011600050E40E947F1C0E94F41C0E94F31A2BE49E
:101170003AE34EE25FE30E940C1A20EF3BEF48EDAA
:1011800052E40E947F1C0E94251B462FEFEAF1E0EB
:10119000628181810E9474088C818F5F8C83DF91D2
:1011A000CF910895CF93229A2A9880EA8A95F1F7F1
:1011B00086B1881F8827881F91E08927369925C026
:1011C00092E0892B22982A9A90919C019817F9F025
:1011D00080939C0181E080933A010E94B302909336
:1011E000390180933801C1E0809138019091390133
:1011F0000E94A402029730F080919C018093A30189
:1012000010923A018C2FCF91089590E0DACFC091DF
:101210003A01CC23B9F3C0E0E7CFCF9384E090E06C
:101220000E94C419C82F81E290E00E94C419982F2F
:101230008C2FCF9108956CEE7EEF90E080E00E94BD
:10124000F61960E082E090E00E94D81960E083E047
:1012500090E00E94D819109293011092940110927C
:1012600095011092960160E084E090E00E94D81908
:1012700060E081E290E00E94D81960E085E090E0B3
:101280000E94D81960E086E090E00E94D8196FEFC4
:1012900087E090E00E94D81940E050E0BA0188E071
:1012A00090E00E94EA1960E08DE090E00E94D81979
:1012B00040E050E0BA0188E190E00E94EA1960E065
:1012C00087E190E00E94D81940E050E0BA018CE13B
:1012D00090E00E94EA1960E080E290E00E94D81954
:1012E00040E050E0BA018FE090E00E94EA1940E04F
:1012F00050E0BA0183E190E00C94EA19CF92DF92BA
:10130000EF92FF926B017C010E94A504B701A60138
:1013100088E090E0FF90EF90DF90CF900C94EA1976
:10132000BF92CF92DF92EF92FF920F931F93CF93D2
:10133000DF9300D00F92CDB7DEB7F82EC62EE42E85
:10134000B22E8091AF0180FF29C0282F2695E22F71
:10135000F0E0EA5EFE4F90819093AA018E7F82308A
:1013600051F59E012F5F3F4F8F2D0E94B4044B819A
:1013700069818A810E946108F092B001C092B10136
:10138000E092B201BB2051F06091AF017091B001C9
:101390008091B1019091B2010E947E090F900F904F
:1013A0000F90DF91CF911F910F91FF90EF90DF9001
:1013B000CF90BF900895923019F4E090B201DCCF45
:1013C000963019F4F090B001D7CF9930A9F687EF95
:1013D000D82ED20EED2DE695F0E0E654FE4F0591A5
:1013E00014912BE331E08F2D0E94B404C80196952F
:1013F00087958F779927D0FC0AC08F0D2EE331E0B7
:101400004E2D6C2D0E94B4040E942A08B5CF2F2DBA
:10141000281B822FF3CF21E04FEF0C949009EFEAC5
:10142000F1E0438128E0421B08F440E021E06281C2
:1014300081810C949009EFEAF1E0438128E0420FAA
:1014400008F44FEF21E0628181810C949009EFEA6A
:10145000F1E0628128E0621B08F460E021E0438152
:1014600081810C949009EFEAF1E0628128E0620F3B
:1014700008F46FEF21E0438181810C949009EFEA39
:10148000F1E0818121E04381628188500C949009D0
:10149000EFEAF1E0818121E043816281885F0C9471
:1014A00090098091B301882319F081508093B30192
:1014B0006091AF017091B0018091B1019091B20142
:1014C0000C947E098091B301833018F48F5F809370
:1014D000B3016091AF017091B0018091B101909121
:1014E000B2010C947E09EFEAF1E080818E7F808367
:1014F00060817181828193810E947E091092AB018B
:101500002FEF80E792E0215080409040E1F700C04B
:1015100000000C942A08EFEAF1E083E08083118256
:101520008FEF8283838314826081718182819381B2
:101530000C947E0910929101E2E3F1E086E0DF0174
:101540001D928A95E9F71092900110928F010C94E8
:10155000DF021F93CF93DF93CDB7DEB7AA970FB605
:10156000F894DEBF0FBECDBF84EC91E02091F10076
:10157000FC012193CF01F1E08C3C9F07B9F78091EA
:10158000C501833009F46DC0B8F4813009F444C05A
:10159000823009F4AEC08091E80083FF6AC2809176
:1015A000C4019091C5019A3008F063C2E92FF0E0C0
:1015B000E359F24E0C94B1198A3009F489C08B308A
:1015C00009F46CC0893039F78091C401813219F770
:1015D0008091C8019091C901892BE9F68091E800BA
:1015E000877F8093E8008091E80082FF35C080917A
:1015F000F200823029F48091F1008B7F813021F458
:101600008091F1008093B7018091E8008B778093FF
:10161000E8000E942202BFCF8091C401813A09F004
:10162000BACF8091E800877F8093E8008091C8015D
:101630009091C901892B61F468E088EB91E070E03A
:101640000E9441028091E8008B778093E800A3CF4D
:1016500060E090E080E0F3CF8091C2018111C3CFC0
:101660009ACF8091C401813A09F095CF8091C80149
:101670009091C901892B09F08ECF8091E800877F76
:101680008093E8008091E80080FFFCCF80911501F5
:101690008093F1008091E8008E77B9CF8091C401EA
:1016A000813209F078CF8091C8019091C901892BCE
:1016B00009F071CF8091E800877F8093E8000E9455
:1016C00022028091C601809315010E949A0A63CF7D
:1016D0008091C401813209F05ECF8091E800877F5C
:1016E0008093E8000E9422028091C7018093B60196
:1016F00052CF8091C401813A09F04DCF8091E8002A
:10170000877F8093E8008091E80080FFFCCF809184
:10171000B601BECF803899F0823809F0AAC1809115
:10172000C8018F70853008F0A4C18093E9008091D2
:10173000EB0085FB882780F91092E90006C08091B4
:10174000C0019091C101911182609091E800977F52
:101750009093E8008093F1001092F1008091E800EE
:101760008E7783C1882309F471C1823009F081C169
:101770008091C601811174C18091C8018F702FEFD3
:10178000280F243008F075C18093E9002091EB0008
:1017900020FF66C1933031F48091EB00806280932A
:1017A000EB005EC19091EB0090619093EB0021E023
:1017B00030E001C0220F8A95EAF72093EA001092E8
:1017C000EA008091EB008860EACF811152C110914C
:1017D000C6011F778091E3008078812B8093E3001E
:1017E0008091E800877F8093E8000E942202809128
:1017F000E80080FFFCCF8091E30080688093E300E5
:1018000082E0111183E08093C20133C1805882309D
:1018100008F02FC18091C6019091C7018C3D23E053
:101820009207A1F583E08A838AE289834FB7F8940F
:10183000DE01139620E03EE051E2E32FF0E050930A
:101840005700E49120FF03C0E295EF703F5FEF7017
:101850008E2F90E0EA30C0F0C7968D939D932F5F56
:10186000243159F74FBF8091E800877F8093E800CB
:101870006AE270E0CE0101960E9441028091E80088
:101880008B778093E800F5C0C096E7CF4091C80100
:101890005091C901292F33272330310509F440C065
:1018A00078F52130310509F472C082E290E0E6E17A
:1018B000F2E02230310509F0DCC02091E800277FFA
:1018C0002093E8002091CA013091CB018217930741
:1018D00008F49C0140E02115310509F05DC041117B
:1018E0005BC08091E80082FDC9CF8091C20188234E
:1018F00029F2853019F28091E80083FFF2CFBECF44
:101900002132310509F43BC02232310509F0B1C062
:10191000452B09F0AEC080E490E0E6EDF1E0CDCFDC
:10192000992781309105D9F0009771F082309105A7
:10193000F1F0039709F09DC0EAE4F2E0E4918E2F04
:1019400090E0EAE4F2E007C0E2E9F2E0E4918E2FF1
:1019500090E0E2E9F2E0009709F48BC0AECFEAE74D
:10196000F2E0E4918E2F90E0EAE7F2E0F4CFE0E5D8
:10197000F2E0E4918E2F90E0E0E5F2E0ECCF452B31
:1019800009F077C089E090E0E8E2F2E096CF82E1EA
:1019900090E0E8E3F2E091CF8091C201882309F45E
:1019A0006DCF853009F46ACF8091E80083FD66CF62
:1019B0008091E80082FD95CF8091E80080FF8BCF79
:1019C0008091F20090E02115310519F088309105E1
:1019D00050F041E0089709F040E08091E8008E77F0
:1019E0008093E80078CF44914093F10031962150E4
:1019F00031090196E8CF8038E1F58091E800877FD2
:101A00008093E8008091C3018093F100A7CE8111FB
:101A100030C01091C601123060F58091E800877FD8
:101A20008093E8001093C3010E942202112311F059
:101A300084E005C08091E30087FDFACF81E08093C8
:101A4000C20161EC81E00E94940113C08091C60143
:101A5000813079F481E0933009F080E08093C10116
:101A60001092E9008091E800877F8093E8000E944F
:101A700022028091E80083FF0AC08091E800877FFE
:101A80008093E8008091EB0080628093EB00AA963F
:101A90000FB6F894DEBF0FBECDBFDF91CF911F917F
:101AA00008956091AF01669570E04BE050E080E0F2
:101AB00091E00E94B719892B19F481E08093AB0162
:101AC0000E94B3029093A5018093A4010895909180
:101AD000AF0190FF36C09170811129C09260909340
:101AE000AF01662351F06091AF017091B001809118
:101AF000B1019091B2010E947E096091AF0166959B
:101B000070E04BE050E080E091E00E94B719892B33
:101B1000A9F01092AB0181E08093A70120E04091F1
:101B2000B2016091B1018091B0010C9490098331B0
:101B300010F09462D4CF880F982BD1CF0E94510D12
:101B4000EACF0895EFEAF1E080818160808361E06F
:101B500086950C94670D8091AF018695815009F4AC
:101B600082E161E00C94670D8091AF0186958F5FF3
:101B7000833108F081E061E00C94670D9091AF0132
:101B800090FF07C09695981720F0961710F40C94C4
:101B9000B40D61E00C94670D8F929F92AF92BF924B
:101BA000CF92DF92EF92FF920F931F93CF93DF9329
:101BB00000D000D00F92CDB7DEB77C01FC0183814D
:101BC0009481892B39F010810181812F80238F3FEF
:101BD00009F06BC50F900F900F900F900F90DF9151
:101BE000CF911F910F91FF90EF90DF90CF90BF901A
:101BF000AF909F908F9008950E94FE06D82E682F78
:101C000089819A810E943403202F2D0D3327331FA1
:101C1000F901EE0FFF1FE10FF11DEE0FFF1FE15461
:101C2000FE4F0591149109303DE5130709F4E2C018
:101C300008F03FC008309DE5190709F44EC0033F86
:101C4000FCE51F0709F43FC108F02BC1083D3CE546
:101C5000130709F434C1093D8CE5180709F43FC1A5
:101C6000073D9CE5190709F073C026E241EE61EEDD
:101C7000C7010E94C30780918E01877009F4AACF23
:101C8000F7018281882309F4A5CF82E00F900F909D
:101C90000F900F900F90DF91CF911F910F91FF90B8
:101CA000EF90DF90CF90BF90AF909F908F900C946B
:101CB00098030A30EDE51E0709F4D3C00B30FDE5AB
:101CC0001F0709F0BCCFF7018281811141C08091CB
:101CD0004601882309F4D0C0DFC0F7018281882340
:101CE000B9F1809143019091440103970CF07BC0BE
:101CF0000E94A20D80914301909144019C012F5FAD
:101D00003F4F3093440120934301880F991FFC01FA
:101D1000E75DFE4F61E080810E94670D8091B00118
:101D20009091B101892BA1F48091B2018F3F81F490
:101D3000E0914301F0914401EE0FFF1FE95DFE4F7A
:101D400080819181089721F46FEF80E00E940B0A57
:101D5000F7019281992309F4B9C410924701023026
:101D6000FCE51F0708F49CC106312CE5120738F08A
:101D700098012A5F3C452930310508F091C10E9445
:101D80000D0990939E0180939D0100313CE513075E
:101D900009F455C108F0E3C008309CE5190709F4BF
:101DA00044C108F0B2C00430FCE51F0709F435C196
:101DB00008F098C002303CE5130709F424C1033051
:101DC0001C4509F426C160919D0110919E0184E09B
:101DD00090E00E94D819612F81E290E00E94D8190A
:101DE0000E949A0A48CF0E94730A109244011092EE
:101DF0004301AECFF7018281882309F4A9CFE09196
:101E00004501EA3008F01BCFF0E0E958F24E0C949F
:101E1000B11960E080E00E940B0A809145018F5F5C
:101E20008093450195CF6FEFF5CF6FEF8BE2F3CF46
:101E30006FEF80E4F0CF6FEF85E5EDCF6FEF8AE6CF
:101E4000EACF6FEF80E8E7CF6FEF8AEAE4CF6FEF7A
:101E50008FEBE1CF6FEF85ED0E940B0A10924501E9
:101E600077CFF7018281882391F08091AF0180FFC5
:101E700003C08695883021F481E08093460168CFC5
:101E800064E070E080E090E00E94670361CF8091A1
:101E90004601882309F45CCF68E070E080E090E0C0
:101EA000F3CF053FECE51E07B1F088F0063F2CE5C7
:101EB000120709F04DCF27E245EE66EED9CE27E2B4
:101EC00045EE65EED5CE26E241EE60EED1CE27E2BC
:101ED00045EE64EECDCE26E241EE62EEC9CE28E2BA
:101EE00041E0EFCF80919D01806106309CE51907AC
:101EF00009F48CC080919D01886007301C4508F46E
:101F000085C080919D01806281C080919D018D7FFF
:101F10000C30FCE51F0709F479C070F480919D0135
:101F20008C600A303CE5130709F470C008F481C0E6
:101F300080919D018E7F6AC080919D01877F0E30C8
:101F40009CE5190709F462C080919D018B7F0F30D9
:101F50001C4508F45BC080919D018F7E57C00B3FEC
:101F6000FCE51F0709F45DC030F503313CE51307BC
:101F700009F46DC078F401319CE5190709F463C0D8
:101F800002311C4509F01FCF0E949A0A80919D01E1
:101F90008F773CC00531FCE51F0709F460C008F4E9
:101FA00074C080919E0181600A3F1C4509F00BCFEF
:101FB00080939E0108CF0F3F8CE5180709F44BC0B2
:101FC00088F480919E018D7F0D3FECE51E0781F323
:101FD00080919E018E7F0E3F1C4550F380919E01A3
:101FE0008360E6CF01302DE5120709F457C008F4ED
:101FF00042C060E002301D4509F0E5CE8EE090E081
:102000000E94D819E0CE80919D01816080939D014E
:10201000DACE80919D018260F9CF80919D0184602C
:10202000F5CF80919E018260C3CF80919D01806435
:10203000EDCF0E949A0A80919D018068E7CF809140
:102040009D018F7DE3CF80919D018F7BDFCF8091BC
:102050009D01837FDBCF80919E018C7FA9CF8091F2
:102060009D0182FB992790F921E0922790FB82F94C
:1020700090FB83F9CBCF80919E01982F9095917022
:102080008E7F892B90FB81F993CF0E949A0A9091C1
:102090009D01892F97FB87F98058B8CF61E0AECFBB
:1020A000809191010631ECE51E0709F026C38A7A7A
:1020B00091E009F490E09093480169E2811165E3B1
:1020C00080E391E00E94BF020E94DF02D4CD85E34D
:1020D00006C38091AF0180FF03C00E94730ACBCD7D
:1020E0000E94A20DC8CD4BEA5DE064EB7DE00E944A
:1020F000A004C1CD44EB5DE06BEA7DE0F8CF4FE397
:102100005AE068E47AE0F3CF48E45AE06FE37AE01B
:10211000EECF47E25AE063E37AE0E9CF43E35AE0E7
:1021200067E27AE0E4CF4FE05AE06BE17AE0DFCF9C
:102130004BE15AE06FE07AE0DACF41E55AE062E63F
:102140007AE0D5CF42E65AE061E57AE0D0CF61E0AF
:1021500081E00E94670D8FCD65E082E00E94BE0D98
:102160008ACD68E086E0FACF62E189E0F7CF011519
:10217000FCE51F0709F447C00E3D1C4509F450C09B
:10218000F70100811181992309F44DC0C8010E9413
:10219000FE06D82E682FC8010E943403B8018D2D89
:1021A0000E9484058C01882EF701B580B2947FE0EF
:1021B000B722A280A1101092900180918E018770A9
:1021C00099F0AA2089F0812F807F803421F080E26D
:1021D000800F883048F082E00E94980380918E0141
:1021E0008770DD24D3948111D12CC12EC2946FE06D
:1021F000C622FBE0FC1508F450C0EC2DF0E0EF57D0
:10220000F24E0C94B1190E949A0A3FEF84E39CE0CD
:10221000315080409040E1F700C000000E949F07CD
:102220000E941B0928CDC8010E940C03D82EB6CFEE
:10223000212F2F70B22E107F19F0B29450EFB522DB
:10224000AA20C9F0BB2069F080E2800F883010F02E
:1022500081100BC080919101B82AB09291010E9427
:10226000DF02802F0E945A0418C080919001B82A82
:10227000B0929001F4CF802F0E94FE03BB2069F042
:10228000B094005E083010F0811043C0809191013D
:10229000B822B09291010E94DF02EC2DE850FF0BB2
:1022A000349710F40E949404DD20A9F080918E01EF
:1022B00080FD11C0F70112828595859585950E9454
:1022C000B003C7010E94CC0D80918E018595859544
:1022D00085950E94750385E0F701DE011196019056
:1022E0000D928A95E1F789819A810E940C03EA8117
:1022F000E80FFF27FF1FCF01880F991FE981E80F23
:10230000F92FF11DEE0FFF1FE154FE4F85919491BF
:1023100061CC80919001B822B0929001BCCF312F56
:102320003F70932E107F103219F0929440EF942258
:10233000882071F081E0881661F1AA20B9F1BB20F4
:1023400071F1F701858180FF8CCF8F70858327C065
:10235000AA2091F090919201892D892BB11003C090
:102360000E94F4039ACFE1E0BE12FACF981709F465
:1023700094CF8093920191CFB11006C00E94D902F0
:10238000892D0E94E90389CFF1E0BF1609F485CFBA
:10239000F5CFAA2031F025E02B1508F47ECF892D4A
:1023A000DFCF34E03B1508F478CFEACFBB2041F310
:1023B000F9E38F1209C02FEF37EE83E02150304050
:1023C0008040E1F700C00000802F0E94FE0365CF2F
:1023D000812F837009F066C0A1105FCF802F829596
:1023E00086958770880F880F602F6F70862E912CCE
:1023F000B12CA12C082E04C0880C991CAA1CBB1C53
:102400000A94D2F740E050E0BA0104FF0FC04FE059
:1024100050E060E070E004C0440F551F661F771F56
:102420008A95D2F74095509560957095812F869545
:1024300086958370823019F1D8F400919301109140
:1024400094012091950130919601813069F04829DD
:1024500059296A297B29CB01BA0160237123822380
:1024600093230E94D10319CF802A912AA22AB32A4A
:10247000CB01BA01682979298A299B29F2CF4829F9
:1024800059296A297B290091930110919401209187
:10249000950130919601CB01BA01602771278227FF
:1024A0009327DFCF8695AA2011F0812F8170882392
:1024B00009F4F3CE802F829586958770880F880F58
:1024C000602F6F70862E912CB12CA12C082E04C089
:1024D000880C991CAA1CBB1C0A94D2F740E050E05F
:1024E000BA0104FF0FC04FE050E060E070E004C0AC
:1024F000440F551F661F771F8A95D2F74095509558
:1025000060957095812F869586958370823019F13C
:10251000D8F400918A0110918B0120918C013091A7
:102520008D01813069F0482959296A297B29CB011D
:10253000BA0160237123822393230E946703ADCEE7
:10254000802A912AA22AB32ACB01BA0168297929C3
:102550008A299B29F2CF482959296A297B29009188
:102560008A0110918B0120918C0130918D01CB015A
:10257000BA016027712782279327DFCF1F70AA2017
:1025800029F0812F0E94B003802FEACE802F0E9475
:10259000E903812F0E94750380CE802F92EF891668
:1025A00009F450C0981578F0E0EF8E1619F1F1EFAC
:1025B0008F1609F43FC0AA2009F467C0B11051CEAC
:1025C000812F8F713CC023EF821609F440C034EF95
:1025D0008312F1CFAA2009F44DC01F71812F0E94F0
:1025E000B003812F880F880F880F836080938E013E
:1025F000812F25C0AA20C9F084E08B1508F44DCEA8
:102600001F7161E070E080E090E004C0660F771F0A
:10261000881F991F1A95D2F700918A0110918B019A
:1026200020918C0130918D01A4CF95E09B1508F489
:1026300034CEE6CF812F8F71AA2009F4ABCF0E9450
:10264000B0032BCE812F8F71AA20C9F3A3CF60E0F6
:1026500070E0CB01AA2009F470CF1F7161E070E037
:1026600080E090E004C0660F771F881F991F1A95BD
:10267000D2F763CF81E00E949803E1E0EB1508F008
:102680000CCE82E00E94980308CEBB2059F089331B
:1026900009F09ACEFFEF27EE33E0F15020403040B2
:1026A000E1F790CE812F8F7175CF85E0DE01119615
:1026B00001900D928A95E1F7F701228189819A8133
:1026C00021119ACA0E940C03D82E9ECA06311C45BD
:1026D00009F056CD809148018111F9CC89E2E2E3FD
:1026E000F1E028E331E09191891303C0DF011197F4
:1026F0001C922E173F07B9F7E7CC8272F801E25C13
:10270000FC45E431F10508F032CDE357F24E0C946C
:10271000B1191F93CF93DF9380915201807FA1F471
:1027200080914F01882381F0209184011091530101
:1027300040914D01A0914E01C0915001D0915101A5
:10274000B42FBA23121304C0DF91CF911F910895C3
:1027500030E0209711F0BF3F21F42F5F3F4F2770EB
:10276000F1CFC90166E070E00E948C19FC01EC5ABF
:10277000FE4F81818A13F1CF80818413EECF828155
:102780008111EBCF838194818C1B9D0B883C91053B
:1027900020F7809152018F70806180935201C901AE
:1027A00066E070E00E948C19FC01E75AFE4F9081B0
:1027B0009F70906190838DE491E00E94CC0DDF9139
:1027C000CF911F910C94DF03AF92BF92CF92DF9213
:1027D000EF92FF920F931F93CF93DF93CDB7DEB7A6
:1027E00061970FB6F894DEBF0FBECDBF8C0185E0B8
:1027F000F801DE011D9601900D928A95E1F7F8012E
:1028000020813181E2808DE4A82E81E0B82E609194
:102810005001709151016115710509F43BC190910E
:102820004D0140914E01892F84238F3F09F432C11D
:10283000C380D480F0904F01F601E61BF70BFF2018
:1028400009F4EFC080915201582F507FE83CF10508
:1028500008F0AFC0511178C0FE2C431321C0921371
:102860001FC0E1101DC08F70806180935201C501AF
:102870000E94CC0D80915201F80185838F2D6196C5
:102880000FB6F894DEBF0FBECDBFDF91CF911F9181
:102890000F91FF90EF90DF90CF90BF90AF90089591
:1028A000CD2829F0822F83238F3F09F011C180E0CA
:1028B000F82FF170DF2EE09184014091530180FDEB
:1028C00020C0EE20D9F280915201816080935201A4
:1028D000F12CD4CFF0E0CF0166E070E00E948C19BB
:1028E000DC01AC5ABE4F11968C911197381307C07A
:1028F0008C91281304C012968C91E812E2CF319685
:10290000E770E413E7CF2D873E878D859E850E9473
:102910004007292F22952F70223050F0243078F470
:102920009F7051F0F8019581907F31F4D12C0AC04D
:102930009F7011F08823D1F3805E8830B8F3C8010E
:102940000E94CC0DFD2C9ACF431306C0921304C0F5
:10295000F801EE2009F480C02D873E878D859E8585
:102960000E944A07882309F1EE20F9F08091520174
:10297000803270F020914D0130914E0138872F83C5
:102980001986DB86CA868C87CE0107960E94CC0DFD
:1029900086E0F801ADE4B1E001900D928A95E1F78F
:1029A0000E948913FF24F39469CFC8010E94CC0DC3
:1029B000F9CF51110AC08DE491E00E94CC0D86E060
:1029C000F50111928A95E9F783CF43130FC0921353
:1029D0000DC0E1100BC0F8018583C8010E94CC0D29
:1029E00086E0F50111928A95E9F748CF2D873E8759
:1029F0008D859E850E944A078823B9F2EE20A9F2B0
:102A000080915201803220F220914D0130914E018F
:102A10003A8329831B82DD82CC828E83CE0101968C
:102A2000B5CFE83CF105E0F6FE2CEE2009F4BDCF71
:102A300043131FC092131DC08091520180FD10C02E
:102A4000982F907F69F0F8018583903F31F0982F9F
:102A5000907F905F8F70892B8583C8010E94CC0D79
:102A600086E0F801ADE4B1E001900D928A95E1F7BE
:102A700005CF2D873E878D859E850E944A0781114F
:102A800087CF80915201816080935201C8010E94DA
:102A9000CC0DF4CEEE2009F488CF2D873E878D85AE
:102AA0009E850E944A07F82E882309F47ECF86E08F
:102AB000F801ADE4B1E001900D928A95E1F78091C3
:102AC0004D0190914E010E9440070E948913D6CE7D
:102AD00081E08E25EDCECF93DF93CDB7DEB767973C
:102AE0000FB6F894DEBF0FBECDBF4B8B5C8B6D8BEA
:102AF0007E8B8F8B1A8A198A85E0FE017396DE0120
:102B00001D9601900D928A95E1F786E0FE013D96B3
:102B1000DE01179601900D928A95E1F7CE01079696
:102B20000E94E413811112C086E0FE013796DE0197
:102B3000119601900D928A95E1F78A859B85892BE4
:102B400029F08F81988589238F3FB1F58091840189
:102B50009091530189131CC067960FB6F894DEBF9D
:102B60000FBECDBFDF91CF91089566E070E00E9467
:102B70008C19DC01AC5ABE4F96E0FE0131960190F3
:102B80000D929A95E1F7209353010E94DF03DECF67
:102B900090E066E070E00E948C198C5A9E4F0E9473
:102BA000E4138823C9F28091840190E00196877034
:102BB000992780938401CACF8091530190E09C01B2
:102BC0002F5F3F4F27703327409184014217130630
:102BD00061F60E949A0A109253011092840186E0D5
:102BE000EDE4F1E0DF011D928A95E9F7AFCF1F9286
:102BF0000F920FB60F9211242F933F934F935F9331
:102C00006F937F938F939F93AF93BF93CF93DF93F4
:102C1000EF93FF93D091E900DF708091EC00C82F13
:102C2000C17080FDC0E81092E9008091F000877FBC
:102C30008093F00078940E94A90A1092E900809194
:102C4000F00088608093F000CD2BCF70C093E90036
:102C5000FF91EF91DF91CF91BF91AF919F918F91B4
:102C60007F916F915F914F913F912F910F900FBE88
:102C70000F901F9018951F920F920FB60F9211246C
:102C80002F933F934F935F936F937F938F939F9374
:102C9000AF93BF93EF93FF938091E10082FF09C050
:102CA0008091E20082FF05C08091E1008B7F8093DC
:102CB000E1008091E10080FF17C08091E20080FF79
:102CC00013C08091E2008E7F8093E2008091E20049
:102CD00080618093E2008091D80080628093D80068
:102CE00019BC85E08093C2018091E10084FF3EC061
:102CF0008091E20084FF3AC084E089BD86E089BD0E
:102D000089B5982F917080FFFBCF8091D8008F7D7F
:102D10008093D8008091E1008F7E8093E1008091C4
:102D2000E2008F7E8093E2008091E20081608093D8
:102D3000E2008091C301882309F453C084E08093AA
:102D4000C2010E949A0A0E9494041092B5018091D7
:102D5000B401882349F08091AF0181608093AF0175
:102D600060E086950E94670D0E94510D8091E10000
:102D700083FF26C08091E20083FF22C08091E100A2
:102D8000877F8093E10082E08093C2011092C301AB
:102D90008091E1008E7F8093E1008091E2008E7F40
:102DA0008093E2008091E20080618093E20060E025
:102DB00080E00E9494018091F00088608093F00090
:102DC000FF91EF91BF91AF919F918F917F916F9103
:102DD0005F914F913F912F910F900FBE0F901F90D9
:102DE00018958091E30087FD93E09093C201A9CFED
:102DF000CDB7DEB72A970FB6F894DEBF0FBECDBFB2
:102E000084B7877F84BF0FB6F894A895809160003F
:102E1000886180936000109260000FBE80E890E0AF
:102E20000FB6F89480936100909361000FBE1092EA
:102E3000E2001092E1008091E00081608093E00068
:102E40008091D8008F778093D80019BC809163005F
:102E500081608093630010929B01809163008E7F5C
:102E60008093630081E080939B011092E2001092B6
:102E7000E1008091D8008F778093D8008091D800AE
:102E800080688093D8008091D8008F7D8093D8008F
:102E900084E089BD86E089BD89B5282F2170F22E96
:102EA00080FFFACF1092C2011092C3011092C101AB
:102EB0001092C00160E080E00E9494018091E100E6
:102EC0008E7F8093E1008091E20081608093E20038
:102ED0008091E20088608093E2008091E0008E7F24
:102EE0008093E0008091E20084608093E200789417
:102EF0008091C2018823A1F01091E9001F70909188
:102F0000EC00892F817090FD80E8182B1092E90069
:102F10008091E80083FD0E94A90A1F701093E900C8
:102F200082E084BD93E095BD9AEF97BD80936E00DB
:102F300022982A9A3F98479A3E98469A10929C0166
:102F40001092A3010E94D2088FE39FE10197F1F74D
:102F500000C000000E94D2088091A30180FF08C039
:102F60006FEF7FEF90E080E00E94F6190E949F07CC
:102F700090E080E00E94D2198C3E9E4F59F00E9452
:102F80001B0990E080E00E94D2198C3E9E4F11F008
:102F90000E941B0982E090E00E94C4198093AD0159
:102FA0000E940D0990939E0180939D0183E090E023
:102FB0000E94C419682F70E090E080E00E94D10365
:102FC00080919F01811136C090E080E00E94D2196B
:102FD0008C3E9E4F21F00E941B090E948B0A88E0C4
:102FE00090E00E94CC196093AF017093B001809380
:102FF000B1019093B2016E7F71F40E948B0A88E058
:1030000090E00E94CC196093AF017093B00180935F
:10301000B1019093B2010E94A5041092AB0180917E
:10302000AF0180FF04C060E086950E94670D81E0DB
:1030300080939F010E94A20D8BE091E09093A101EB
:103040008093A00177247394EE24EA9434E0832ED5
:1030500046E0942E58E1C52ED12C60E4662E809176
:10306000C201853009F469C00E94D2085090A301C2
:103070000091AE010511C3C0EE82EF8218860E9456
:10308000B3028160782F9A8789874E815F81688536
:103090008A850E946B158091AB01882309F441C099
:1030A0008091AA01E091AF01E695E81BE093A601AB
:1030B000823009F0D2C0F0E0EE52FE4FE4910E2FC4
:1030C00010E02EE9A22E28E0B22E8091A7018823DD
:1030D00089F01092A7010E94B302980120953095C3
:1030E000820F931F9093A5018093A4011092A901D0
:1030F0001092A8018091A4019091A5010E94A402C0
:103100008017910770F0E091A401F091A5010E0FD6
:103110001F1F1093A5010093A40184EA91E0F5011B
:1031200009950E9494049091AC01891709F497CFF6
:103130000E9494048093AC0192CF8091C2018430AC
:1031400009F43DC01092A2010FB6F894A895C09260
:1031500060000FBE609260001092AB018091B501DB
:10316000811116C07092B5018091AF01982F9170B6
:103170009093B4018E7F8093AF018FEF90E7E2E0F0
:1031800081509040E040E1F700C000000E942A0812
:1031900083B7817F846083BF83B7816083BF789466
:1031A000889583B78E7F83BF0FB6F894A8958091DA
:1031B0006000886180936000109260000FBE809173
:1031C000C101882309F44BCF0E94D2088091A3014A
:1031D000882309F444CF89BC99BC09B400FEFDCF13
:1031E0008091D8008F7D8093D8008091E00082602C
:1031F0008093E0008091E00081FDFCCF30CFB12CC6
:10320000A12C1F2D0525802F8123F1F0A9821A8280
:1032100091E0852D812309F490E09B830E94B30205
:103220008160782F9D838C8349815A816B818D8148
:103230000E946B158091AE0181278093AE01F1E071
:10324000BF1609F428CFBF2C110F21E0A21203C032
:10325000B11021CF11CFAF2CD6CF863059F4F0E08A
:10326000E153FE4FE4910E2F10E09EE8A92E98E066
:10327000B92E2BCF00ED17E08DE9A82E82E0B82EF5
:1032800024CF78941F921FB61F9211248F939F937F
:10329000AF93BF938091970190919801A09199016C
:1032A000B0919A010196A11DB11D80939701909351
:1032B0009801A0939901B0939A01BF91AF919F910A
:1032C0008F911F901FBE1F9018951F921FB61F92BF
:1032D00011248F939F93AF93BF938091A20181118B
:1032E00013C08091970190919801A0919901B0919C
:1032F0009A014196A11DB11D809397019093980169
:10330000A0939901B0939A01BF91AF919F918F9132
:103310001F901FBE1F9018950024552704C0080E4B
:10332000591F880F991F009729F076956795B8F374
:103330007105B9F7802D952F0895AA1BBB1B51E18C
:1033400007C0AA1FBB1FA617B70710F0A61BB70B15
:10335000881F991F5A95A9F780959095BC01CD01BA
:103360000895EE0FFF1F0590F491E02D0994FC01E4
:103370004150504030F001900616D1F73197CF01FF
:103380000895882799270895F999FECF92BD81BDA8
:10339000F89A992780B50895A6E1B0E044E050E09E
:1033A0000C94FE19A8E1B0E042E050E00C94FE1944
:1033B000262FF999FECF92BD81BDF89A019700B4EE
:1033C000021639F01FBA20BD0FB6F894FA9AF99A8E
:1033D0000FBE08950396272F0E94D9190E94D8196D
:1033E000252F0E94D919242F0C94D9190196272F23
:1033F0000E94D9190C94D819DC01CB01FC01F99970
:10340000FECF06C0F2BDE1BDF89A319600B40D9230
:1034100041505040B8F708955058BB27AA270E9442
:10342000241A0C94CF1B0E94C11B38F00E94C81BA9
:1034300020F039F49F3F19F426F40C94971B0EF4F6
:10344000E095E7FB0C94911BE92F0E94E01B58F3D9
:10345000BA17620773078407950720F079F4A6F579
:103460000C94021C0EF4E0950B2EBA2FA02D0B012C
:10347000B90190010C01CA01A0011124FF27591BB9
:1034800099F0593F50F4503E68F11A16F040A22FBF
:10349000232F342F4427585FF3CF46953795279530
:1034A000A795F0405395C9F77EF41F16BA0B620B2F
:1034B000730B840BBAF09150A1F0FF0FBB1F661F76
:1034C000771F881FC2F70EC0BA0F621F731F841FB9
:1034D00048F4879577956795B795F7959E3F08F0DF
:1034E000B0CF9395880F08F09927EE0F97958795A1
:1034F00008950E948D1A0C94CF1B0E94C81B58F08F
:103500000E94C11B40F029F45F3F29F00C94911BED
:1035100051110C94031C0C94971B0E94E01B68F340
:103520009923B1F3552391F3951B550BBB27AA277C
:1035300062177307840738F09F5F5F4F220F331FB6
:10354000441FAA1FA9F335D00E2E3AF0E0E832D07E
:1035500091505040E695001CCAF72BD0FE2F29D081
:10356000660F771F881FBB1F261737074807AB0753
:10357000B0E809F0BB0B802DBF01FF2793585F4FC8
:103580003AF09E3F510578F00C94911B0C94031C6B
:103590005F3FE4F3983ED4F3869577956795B795AA
:1035A000F7959F5FC9F7880F911D9695879597F9B5
:1035B0000895E1E0660F771F881FBB1F621773072E
:1035C0008407BA0720F0621B730B840BBA0BEE1F43
:1035D00088F7E095089529F416F00C94911B0C944B
:1035E000021C0C94971B0E94E81BA8F39638A0F7C6
:1035F00007F80F92E8942BE33AEA48EB5FE70E9462
:10360000941C0F920F920F924DB75EB70F920E94CB
:103610004B1CE4E7F0E00E949A1B4F915F91EF9101
:10362000FF91E595EE1FFF1F49F0FE57E068442724
:10363000EE0F441FFA95E1F74195550B0E94151CBA
:103640000F9007FE0C94091C08950E94E81B88F057
:103650009F5798F0B92F9927B751B0F0E1F0660F56
:10366000771F881F991F1AF0BA95C9F714C0B13097
:1036700091F00E94021CB1E008950C94021C672F87
:10368000782F8827B85F39F0B93FCCF386957795C6
:103690006795B395D9F73EF49095809570956195AF
:1036A0007F4F8F4F9F4F0895E89409C097FB3EF4DA
:1036B00090958095709561957F4F8F4F9F4F99237F
:1036C000A9F0F92F96E9BB279395F69587957795FD
:1036D0006795B795F111F8CFFAF4BB0F11F460FFBD
:1036E0001BC06F5F7F4F8F4F9F4F16C0882311F015
:1036F00096E911C0772321F09EE8872F762F05C029
:10370000662371F096E8862F70E060E02AF09A95C3
:10371000660F771F881FDAF7880F9695879597F9B8
:10372000089597F99F6780E870E060E008959FEF43
:1037300080EC0895DF93CF931F930F93FF92EF9246
:10374000DF927B018C01689406C0DA2EEF010E94A3
:10375000911CFE01E894A5912591359145915591D3
:10376000A6F3EF010E94241AFE019701A801DA9442
:1037700069F7DF90EF90FF900F911F91CF91DF914C
:10378000089500240A9416161706180609060895C7
:1037900000240A9412161306140605060895092E2D
:1037A0000394000C11F4882352F0BB0F40F4BF2B9C
:1037B00011F460FF04C06F5F7F4F8F4F9F4F0895DC
:1037C00057FD9058440F551F59F05F3F71F04795D2
:1037D000880F97FB991F61F09F3F79F087950895B7
:1037E000121613061406551FF2CF4695F1DF08C0D6
:1037F000161617061806991FF1CF869571056105F3
:1038000008940895E894BB2766277727CB0197F99A
:1038100008959B01AC0160E070E080E89FE30C94A8
:10382000791A0C94911B0C94FC1C0E94E81BD8F391
:103830009923C9F3940F511DA3F39150504094F074
:1038400059F0882332F0660F771F881F915050403F
:10385000C1F79E3F51052CF7880F911D96958795CE
:1038600097F908955F3FACF0983E9CF0BB27869592
:1038700077956795B79508F4B1609395C1F7BB0F3D
:1038800058F711F460FFE8CF6F5F7F4F8F4F9F4F66
:10389000E3CF0C94031CFA01DC01AA0FBB1F9B01B0
:1038A000AC01BF5728F4222733274427507820C083
:1038B000B75190F4AB2F0024469537952795011CFE
:1038C000A395D2F3002071F0220F331F441FB3954C
:1038D000DAF30ED00C940C1A61307105A0E88A0757
:1038E000B94630F49B01AC0166277727882790788A
:1038F000309621F0208331834283538308950E94C0
:10390000911C0C94CF1B0E94C11B38F00E94C81B55
:1039100020F0952311F00C94911B0C94971B0C94A0
:10392000031C0E94E01B78F39923C9F35523B9F3D4
:10393000950F50E0551FAA27EE27FF27BB2700242D
:103940000894679520F4E20FF31FB41F0A1E220F9C
:10395000331F441FAA1F6695A9F7779530F4F30F1C
:10396000B41F0A1E121E08F46395330F441FAA1FCA
:10397000221F769599F7879520F4B40F0A1E121E20
:10398000631F440FAA1F221F331F8695A9F7862F96
:10399000712D602D11249F5750409AF0F1F088232B
:1039A0004AF0EE0FFF1FBB1F661F771F881F915045
:1039B0005040A9F79E3F510580F00C94911B0C9448
:1039C000031C5F3FE4F3983ED4F3869577956795A3
:1039D000B795F795E7959F5FC1F7FE2B880F911D6F
:1039E0009695879597F908959F930E940C1D0F90C7
:1039F00007FCEE5F0C94351D9F3F31F0915020F491
:103A0000879577956795B795880F911D96958795BA
:103A100097F908950C94971B0E94E81BD8F3E8943B
:103A2000E0E0BB279F57F0F02AED3FE049EC06C0ED
:103A3000EE0FBB0F661F771F881F28F0B23A620790
:103A40007307840728F0B25A620B730B840BE3955B
:103A50009A9572F7803830F49A95BB0F661F771FDE
:103A6000881FD2F790480C94FE1CEF93E0FF07C02C
:103A7000A2EA2AED3FE049EC5FEB0E94241A0E9483
:103A8000CF1B0F90039401FC9058ECE9F0E00C94EC
:103A9000491D9F938F937F936F93FF93EF939B01A8
:103AA000AC010E947F1CEF91FF910E949A1B2F9105
:103AB0003F914F915F910C947F1CF894FFCF590771
:103AC00059076207620764076207620762075907BE
:103AD000590769076207620769078A0BB20B390D3C
:103AE000B20B390DE50B060C390DFB0C070D090F58
:103AF000130F150F180F1B0F1E0F210F240F270F69
:103B00002A0F181118118F118F114D114D114D11D0
:103B10004D11E811BE12CD12CD12691073107A103A
:103B20007F10841089108E10931098109D10A21091
:103B3000A710AC10B1103B0E3B0E3B0E3B0EB41069
:023B40003B0E3A
:103B420001090A0B0C0D0E0F101112A1026E07A033
:103B5200029E029F020100010202020206060609FB
:103B620009090909090909090908000500010000F4
:00000001FF
